{
  "contractName": "CoinFlip",
  "abi": [
    {
      "inputs": [],
      "payable": true,
      "stateMutability": "payable",
      "type": "constructor"
    },
    {
      "constant": true,
      "inputs": [],
      "name": "balance",
      "outputs": [
        {
          "internalType": "uint256",
          "name": "",
          "type": "uint256"
        }
      ],
      "payable": false,
      "stateMutability": "view",
      "type": "function"
    },
    {
      "constant": true,
      "inputs": [],
      "name": "owner",
      "outputs": [
        {
          "internalType": "address",
          "name": "",
          "type": "address"
        }
      ],
      "payable": false,
      "stateMutability": "view",
      "type": "function"
    },
    {
      "constant": false,
      "inputs": [
        {
          "internalType": "uint256",
          "name": "myCoinSide",
          "type": "uint256"
        }
      ],
      "name": "setAbet",
      "outputs": [],
      "payable": true,
      "stateMutability": "payable",
      "type": "function"
    },
    {
      "constant": true,
      "inputs": [],
      "name": "getAbet",
      "outputs": [
        {
          "internalType": "uint256",
          "name": "myCoinSide",
          "type": "uint256"
        },
        {
          "internalType": "uint256",
          "name": "myBetValue",
          "type": "uint256"
        }
      ],
      "payable": false,
      "stateMutability": "view",
      "type": "function"
    },
    {
      "constant": false,
      "inputs": [],
      "name": "flip",
      "outputs": [
        {
          "internalType": "bool",
          "name": "",
          "type": "bool"
        }
      ],
      "payable": false,
      "stateMutability": "nonpayable",
      "type": "function"
    },
    {
      "constant": true,
      "inputs": [],
      "name": "showResult",
      "outputs": [
        {
          "internalType": "bool",
          "name": "",
          "type": "bool"
        }
      ],
      "payable": false,
      "stateMutability": "view",
      "type": "function"
    }
  ],
  "bytecode": "0x608060405234600181905550336000806101000a81548173ffffffffffffffffffffffffffffffffffffffff021916908373ffffffffffffffffffffffffffffffffffffffff1602179055506104ea8061005a6000396000f3fe6080604052600436106100555760003560e01c80631d6091b51461005a57806333ee3131146100885780638da5cb5b146100b7578063b454593a1461010e578063b69ef8a814610140578063cde4efa91461016b575b600080fd5b6100866004803603602081101561007057600080fd5b810190808035906020019092919050505061019a565b005b34801561009457600080fd5b5061009d610221565b604051808215151515815260200191505060405180910390f35b3480156100c357600080fd5b506100cc610238565b604051808273ffffffffffffffffffffffffffffffffffffffff1673ffffffffffffffffffffffffffffffffffffffff16815260200191505060405180910390f35b34801561011a57600080fd5b5061012361025d565b604051808381526020018281526020019250505060405180910390f35b34801561014c57600080fd5b506101556102ee565b6040518082815260200191505060405180910390f35b34801561017757600080fd5b506101806102f4565b604051808215151515815260200191505060405180910390f35b6101a261049b565b818160000181815250503481602001818152505080600360003373ffffffffffffffffffffffffffffffffffffffff1673ffffffffffffffffffffffffffffffffffffffff1681526020019081526020016000206000820151816000015560208201518160010155905050346001600082825401925050819055505050565b6000600260009054906101000a900460ff16905090565b6000809054906101000a900473ffffffffffffffffffffffffffffffffffffffff1681565b600080600360003373ffffffffffffffffffffffffffffffffffffffff1673ffffffffffffffffffffffffffffffffffffffff16815260200190815260200160002060000154600360003373ffffffffffffffffffffffffffffffffffffffff1673ffffffffffffffffffffffffffffffffffffffff16815260200190815260200160002060010154915091509091565b60015481565b6000806102ff610489565b90506000600360003373ffffffffffffffffffffffffffffffffffffffff1673ffffffffffffffffffffffffffffffffffffffff168152602001908152602001600020600101549050600360003373ffffffffffffffffffffffffffffffffffffffff1673ffffffffffffffffffffffffffffffffffffffff16815260200190815260200160002060000154821415610467578060020260015410156103a457600080fd5b80600202600154036001819055506000600360003373ffffffffffffffffffffffffffffffffffffffff1673ffffffffffffffffffffffffffffffffffffffff168152602001908152602001600020600101819055503373ffffffffffffffffffffffffffffffffffffffff166108fc826002029081150290604051600060405180830381858888f19350505050158015610443573d6000803e3d6000fd5b506001600260006101000a81548160ff021916908315150217905592505050610486565b6000600260006101000a81548160ff0219169083151502179055925050505b90565b60006002428161049557fe5b06905090565b60405180604001604052806000815260200160008152509056fea265627a7a72315820fd9744d0f792829fe051788d5f5ca745c6fd82cd433a02d6ad17b2a8879a683e64736f6c634300050c0032",
  "source": "pragma solidity 0.5.12;\r\n\r\ncontract CoinFlip {\r\n    \r\n    address public owner;\r\n    uint public balance;\r\n    bool result;\r\n    \r\n    struct Bet {\r\n        uint coinside;\r\n        uint betvalue;\r\n    }\r\n    \r\n    mapping (address => Bet) private bettings;\r\n    \r\n\r\n\r\n    constructor() public payable {\r\n        balance = msg.value;\r\n        owner = msg.sender;\r\n\r\n    }\r\n\r\n    function setAbet(uint myCoinSide) public payable {\r\n        \r\n        Bet memory newbet;\r\n        \r\n        newbet.coinside = myCoinSide;\r\n        newbet.betvalue = msg.value;\r\n        bettings[msg.sender] = newbet;\r\n        \r\n        balance += msg.value;\r\n\r\n    \r\n    }\r\n\r\n    function getAbet() public view returns (uint myCoinSide, uint myBetValue) {\r\n        \r\n        return (bettings[msg.sender].coinside, bettings[msg.sender].betvalue);\r\n    }\r\n\r\n    function random () private view returns (uint) {\r\n        return now % 2;\r\n    }\r\n\r\n    function flip () public returns(bool) {\r\n        \r\n        uint coin = random();\r\n        uint toTransfer = bettings[msg.sender].betvalue;\r\n        if (coin == bettings[msg.sender].coinside) {\r\n            require(balance>=2*toTransfer);\r\n            balance = balance - 2*toTransfer;\r\n            bettings[msg.sender].betvalue = 0;\r\n            msg.sender.transfer(2*toTransfer);\r\n            return result = true;\r\n        }\r\n        else {\r\n            \r\n            return result = false;\r\n        }\r\n    \r\n    }\r\n    \r\n    function showResult() public view returns (bool) {\r\n        return result; \r\n    }\r\n    \r\n    \r\n    \r\n}",
  "sourcePath": "C:/Users/Admin/Documents/Ethereum course 201/Coin Flip Project/contracts/CoinFlip.sol",
  "compiler": {
    "name": "solc",
    "version": "0.5.12+commit.7709ece9.Emscripten.clang"
  },
  "schemaVersion": "3.0.16",
  "updatedAt": "2020-09-25T13:03:35.536Z",
  "devdoc": {
    "methods": {}
  },
  "userdoc": {
    "methods": {}
  }
}